:020000022000DC
:1060000000000120F9620200216302002363020004
:1060100025630200276302002963020000000000DC
:106020000000000000000000000000002B630200E0
:106030002D630200000000002F63020031630200A4
:1060400033630200336302004977020033630200C6
:1060500033630200336302005972020033630200AB
:1060600033630200336302003363020033630200D0
:10607000336302007D780200336302003363020061
:1060800033630200058902003363020033630200B8
:10609000A58902003363020001DB020033630200C2
:1060A0003363020033630200336302003363020090
:1060B00033630200336302000000000000000000B0
:1060C0003363020033630200336302003363020070
:1060D00033630200336302003363020000000000F8
:1060E00000000000000000000000000000000000B0
:1060F00000000000000000000000000000000000A0
:10610000000000000000000000000000000000008F
:10611000000000000000000000000000000000007F
:10612000000000000000000000000000000000006F
:10613000000000000000000000000000000000005F
:10614000000000000000000000000000000000004F
:10615000000000000000000000000000000000003F
:10616000000000000000000000000000000000002F
:10617000000000000000000000000000000000001F
:10618000000000000000000000000000000000000F
:1061900000000000000000000000000000000000FF
:1061A00000000000000000000000000000000000EF
:1061B00000000000000000000000000000000000DF
:1061C00000000000000000000000000000000000CF
:1061D00000000000000000000000000000000000BF
:1061E00000000000000000000000000000000000AF
:1061F000000000000000000000000000000000009F
:106200000348044B834202D0034B03B11847704745
:10621000DC220020DC2200200000000005480649A6
:106220000B1AD90F01EBA301491002D0034B03B1A4
:1062300018477047DC220020DC220020000000000C
:1062400010B5064C237843B9FFF7DAFF044B13B1BE
:106250000448AFF300800123237010BDF02200201A
:106260000000000010CD030008B5044B1BB1044929
:106270000448AFF30080BDE80840CFE7000000000D
:10628000F422002010CD0300A3F5803A704700BF30
:10629000154B002B08BF114B9D46FFF7F5FF002162
:1062A0008B460F461148124A121A11F01FFA0C4B76
:1062B000002B00D098470B4B002B00D098470020B4
:1062C000002104000D000B4811F0E0F811F00EF968
:1062D0002000290007F074F911F0DEF80000080032
:1062E000000000000000000000000120F02200205B
:1062F0008C380020C17403000649074A074B9B1ADB
:1063000003DD043BC858D050FBDC01F085FFFFF7EC
:10631000BFFF0000B4CE030020220020F0220020A6
:10632000FEE7FEE7FEE7FEE7FEE7FEE7FEE7FEE745
:10633000FEE7FEE7022000F015BC00BF2DE9F047A4
:1063400006460D4600F02EFC032805D8012D044614
:106350001AD0022D27D00DB1BDE8F0871B4802F0FE
:10636000C3FD1B4B1B4A04EB44010B44125D9D789B
:10637000AA42F1D1002DEFD0174B1B68002BEBD0B8
:106380002846BDE8F0471847114F00EB4003FA18C4
:10639000FD5C53784FEA40085BB9A04447440D4B7D
:1063A000BA781A55E6E70A4B00EB40041C446578BE
:1063B000E0E7DFF8289005484A464FF4004102F034
:1063C0003BFD0028E9D189F80060E6E73023002092
:1063D000702300208C230020842300200C23002025
:1063E00010B5007800F0DEFB03280BD8064B00EB5D
:1063F00040001844407828B1044B1B6813B1BDE835
:106400001040184710BD00BF7023002084230020D7
:1064100038B5BA4D2B7804466BB1B94B1B780020C8
:106420002870002B4DD000F065FB012000F062FBCE
:10643000032000F05FFB172C00F25E81DFE814F010
:10644000EB00630063009F00AC00B900CB00970035
:1064500050004400500044007A0018001800180052
:1064600018001800D9001801810000015C005C00D0
:10647000A44802F039FDD4F11104054600F026814C
:10648000002840F02381012C14D0C82303FB04F41E
:1064900029464FF400434FF4FA70C4FB03014FF454
:1064A0007A72002311F088FB2A460146954802F0D3
:1064B000C3FC0546022000F011FB914B01221A702B
:1064C0001FE000F023FBB6E70120287000F04AFB34
:1064D000BDE838408C4800224FF4804102F0ACBC4B
:1064E0000120287000F03EFBBDE8384086480022BD
:1064F00040F6CD4102F0A0BC00F01EFB834B00250E
:106500001C70284638BD002000F0DAFA002840F060
:10651000C38000F0E3FA41F69A1143F23333022CC0
:1065200018BF1946794B1C70BDE8384076480022E8
:1065300002F082BC00F000FB744B0C221A700025A4
:10654000DFE76F4B1B78002B00F0D380002000F0BA
:10655000D1FA012000F0CEFA032000F0CBFA01209E
:1065600000F0BCFA694B14221A700025C9E700201C
:1065700000F0B4FA654B07221A700025C1E700202D
:1065800000F09EFA002840F09B8000F0A7FA41F648
:106590009A115E4B0324C6E7002000F091FA002810
:1065A00040F0888000F09AFA43F23331574B0424CC
:1065B000B9E7002000F084FA002877D100F08EFAC5
:1065C000524B514805241C70BDE83840002241F66A
:1065D0009A1102F031BC002000F0C4FA4B4B4A483B
:1065E00006241C70BDE83840002240F6CD4102F080
:1065F00023BC434B1B78002B78D0002000F07AFAA4
:10660000012000F077FA032000F074FA3F4B1222C9
:106610001A70002575E73A4B1B78002B60D00020DC
:1066200000F068FA012000F065FA032000F062FA39
:10663000354802F059FC354B002205461A7060E7D8
:106640002F4B1B78002B48D0002000F053FA01207C
:1066500000F050FA032000F04DFA002000F03EFA5E
:10666000012000F03BFA294B15221A70002548E75B
:10667000234B1B78BBB3002000F03CFA012000F054
:1066800039FA032000F036FA002000F027FA1F4BF9
:1066900013221A70002534E7002000F02BFA022C98
:1066A0004EF2666118BF4FF400313BE7002000F066
:1066B00021FA85E7002000F01DFA4FF4003175E75C
:1066C000002000F017FA46F2666162E7022000F04F
:1066D00011FA0B4B00221A7013E700F017FABCE70F
:1066E00000F014FAA4E700F011FACDE700F00EFA7A
:1066F0008CE700F00BFA32E7002502E78023002048
:106700000D23002010230020502300208823002088
:10671000044B1B68DB0700D47047034B1878FFF766
:1067200077BE00BF7C23002088230020032801D9E6
:106730000020704700F028BA044B1B6813F00103D7
:1067400001D118467047FFF763BE00BF7C230020CD
:1067500038B5244B244A196081070446106004D4DC
:1067600010F001052CD1284638BD204B20480E21C1
:106770000F221970DA701021112299715A720421B6
:1067800040F2666202F00AF8054630B1E207EAD547
:10679000012000F01FFA284638BD02F057F80546E0
:1067A0000028F3D10146134A134802F033FBE307F4
:1067B0000546D8D5012000F00DFA002DD3D102E016
:1067C000012000F007FA0D4A0D48002102F022FBDB
:1067D00005460028C7D1BDE838400A4A0A480121C9
:1067E00002F018BB842300207C23002070230020AB
:1067F000D47E0300E1630200F87E0300116702000B
:10680000FC7E030035630200F47E0300032806D8F3
:10681000012A06D001291BD0022908D071B1072016
:106820007047012911D002294FF00002F6D10B4B1D
:1068300000EB4000034400205A707047074B00EB08
:106840004000034408469A70704700F10E02D2B22D
:1068500000EB400301490020CA5470477023002018
:10686000032801D90620704708B500F0ADF9800073
:1068700000F1A0430020D3F8002722F44032C3F8EF
:106880000027D3F8002742F44032C3F8002708BDA0
:1068900010B50388102B07D0112B04D1254B186895
:1068A0000138186030B110BD224C216811B301319C
:1068B000216010BD01220221FFF7A8FF40B1072887
:1068C00006D01D4B1B68002BEDD0BDE810401847CB
:1068D000072202210120FFF799FF08B10728F0D114
:1068E00000210A220846FFF791FF0028DBD0072885
:1068F000E7D1D8E701220846FFF788FF38B107281B
:1069000005D00D4B1B6803B198472168CFE70722DC
:1069100002210120FFF77AFF08B10728F1D10422F4
:1069200002210020FFF772FF0028EED00728E8D1EF
:10693000EBE700BF942300209023002008B500203F
:10694000FFF78EFF10B1062800D008BD0120FFF729
:1069500087FF0028F9D0062808BF002008BD00BF27
:10696000184B10B5186031B101200C46FFF7DEFE60
:10697000F8B102232370144B186808B1002010BD31
:1069800001220221FFF742FF08B10728F7D10722B1
:1069900002210120FFF73AFF08B10728EFD10021BB
:1069A0000A220846FFF732FF0028E7D00728E5D083
:1069B00010BDFFF7BBFE10B10B232370DBE7207087
:1069C000D9E700BF902300209423002006F07ABA74
:1069D0000021084606F02ABA08B50846114600F01C
:1069E000D7F9002008BD00BF30B5054685B00020AE
:1069F00000F07AF9044610B1204605B030BD281DDC
:106A0000039008F0BFFA0E490398009423462246EB
:106A100008F00CFB10F1360F0CD00028ECD048F237
:106A2000115348F2165410F1380F08BF1C46204687
:106A300005B030BD48F21454204605B030BD00BF4B
:106A4000D969020008B5043008F0A2FA00F07EF916
:106A5000002008BD08B5043008F0BCFB10F1360F6B
:106A60000DD048B148F2115248F2165310F1380FC8
:106A700008BF1346184608BD0346184608BD48F22D
:106A80001453184608BD00BF114608B51A46043015
:106A900008F08EFA10F1360F0DD048B148F21152BD
:106AA00048F2165310F1380F08BF1346184608BDB8
:106AB0000346184608BD48F21453184608BD00BFE7
:106AC0004FF0A042044B1B5CD2F80405D840C043F1
:106AD00000F00100704700BF047F0300044A115C0E
:106AE00001234FF0A0428B40C2F80C35704700BF25
:106AF000047F0300044A115C01234FF0A0428B4045
:106B0000C2F80835704700BF047F03004FF0A04370
:106B100010B44FF480204FF400344FF400214FF4B0
:106B20008012C3F80845C3F80805C3F80815C3F870
:106B300008255DF8044B70474FF0A04310B44FF4A4
:106B400080204FF400344FF400214FF48012C3F83A
:106B50000C45C3F80C05C3F80C15C3F80C255DF8FB
:106B6000044B7047074B4FF0A041185CD1F8043537
:106B70000122824022EA03001340C1F80805C1F84F
:106B80000C357047047F03004FF0A042044B1B5CA0
:106B9000D2F81005D840C04300F00100704700BF94
:106BA000007F03000D2809D00E2809D00F2809D036
:106BB00010280CBF03204FF0FF30704700207047B3
:106BC0000120704702207047014B185C704700BFDE
:106BD000007F0300C20710B41AD54FF0A043032270
:106BE0004FF40031C3F844274FF48024C3F84827FA
:106BF000C3F84C27C3F85027C3F808154FF4801288
:106C00004FF40021C3F80845C3F80815C3F8082558
:106C100083070AD54FF0A0430C22C3F83427C3F8EA
:106C20003827C3F83C27C3F840275DF8044B70476A
:106C300031DF704700B585B0024600230DF10F002B
:106C40008DF807208DF80F3002F08AF906F052FF18
:106C500030B19DF80F0002F0A9F905B05DF804FB12
:106C600009480DF1070104F027FE074804F016FE5D
:106C70000028EED000F0E2FD9DF80F0002F096F93A
:106C800005B05DF804FB00BF80CE030000B583B003
:106C900098B103280ED100230DF107008DF80730BD
:106CA00002F05EF90E480378012B11D09DF8070021
:106CB00002F07CF903B05DF804FB094B1B78012B53
:106CC000F8D100F0BBFD03B05DF804EB00F0BEBDF1
:106CD0000449013000F070FD00F09EFDE6E700BFC2
:106CE000E8230020356C020010B5154C227882B0E4
:106CF00012BB14498DF807200346002B08BF0B4632
:106D00000DF107001B88A4F8013002F029F906F004
:106D1000F1FE40B19DF807000123237002F046F90F
:106D2000002002B010BD0849601C00F045FD00289D
:106D3000F7D100F071FDEDE7852002B010BD00BF76
:106D4000E82300200C7F0300356C020000B583B0FF
:106D500000230DF107008DF8073002F001F906F06D
:106D6000C9FE60B19DF8070002F020F9064804F062
:106D70006FFE064B00221A7003B05DF804FB00F0B2
:106D80005DFD00F063FDEDE780CE0300E823002009
:106D900000293ED02DE9F04FDFF878A083B00646F9
:106DA0008B4642F207095F46402F28BF40275FFA13
:106DB00087F800250CE09DF8070002F0F7F841463F
:106DC0003046FFF735FF48450446F2D0022C17D174
:106DD0000DF107008DF8075002F0C2F806F08AFEA8
:106DE0000028E8D13A463146504604F0D9FD044621
:106DF00000F012FD9DF8070002F0D8F8022CE7D051
:106E0000002CD6D1BBEB070B3E44CCD103B0BDE880
:106E1000F08F704780CE030030B50A4B0A4C53F810
:106E2000213054F82110027885B0D0E901548DF852
:106E30000020C26801958DF8084003926846984783
:106E400005B030BDF0230020EC23002030B50A4B04
:106E50000A4C53F8213054F82110027885B0D0E95B
:106E600001548DF80020C26801958DF80840039206
:106E70006846984705B030BDF0230020EC23002081
:106E8000F0B5174B06784F7F43F826201446154B74
:106E9000154A9F550546086942F826008C46BCE80D
:106EA0000F0089B0EE46AEE80F009CE80F008EE8B8
:106EB0000F0004964FB1002C0C4A694608BF2246C9
:106EC000281D01F00DF809B0F0BD002C084A6946F4
:106ED00008BF224605F10C0000F0CAFD09B0F0BD64
:106EE000F0230020F4230020EC230020196E020080
:106EF0004D6E020030B5204C94F8585083B0BDBBA5
:106F00004FF0FF304FF0FF314FF0FF33C4E9000185
:106F10000422294604F15400C4E90233C4E90433CD
:106F2000C4E90633C4E90833C4E90A33C4E90C33BD
:106F3000C4E90E33C4E91033C4E91233236510F0F9
:106F4000D5FB0E4A0E4BC02182F80613402111607A
:106F5000C3F87C51D3F87C21019201984FF0004294
:106F60000121284684F85810C3F8042303B030BD2B
:106F7000082003B030BD00BFF823002000E100E08E
:106F800000600040034B93F85800003818BF012000
:106F9000704700BFF823002070B5774B03EB000E5D
:106FA0009EF930C0BCF1000F01DB082070BD91F8E4
:106FB00002C01CF0020FCCF340055DD11C6A013405
:106FC00000F0D2805C6A013400F0C4804FF00C0EF7
:106FD0004FF00A0C53F82C40013459D00CF1010445
:106FE000744547D253F82460013600F0AB800CF1B1
:106FF000020474453ED253F82460013600F0A280AA
:107000000CF10306764535D253F8264001343ED0C4
:107010000CF1040676452DD253F82640013436D0C3
:107020000CF10506764525D253F8264001342ED0C2
:107030000CF1060676451DD253F82640013426D0C1
:107040000CF10706764515D253F8264001341ED0C0
:107050000CF1080676450DD253F82640013416D0BF
:107060000CF1090CF44505D2DC6A013408BF4FF07D
:107070000B0C0DD0042070BD1C68013464D05C681A
:1070800001346ED04FF0080E4FF0020CA2E7B44668
:1070900043F82C201A184FFA8CFE82F830E015B90C
:1070A0009C448CF848008A78540715D4D50740D5FD
:1070B000820002F1A042D2F8004724F00204C2F894
:1070C00000472E4DC40800F0070C2E5D012202FA85
:1070D0000CF232432A558A7812F002021CD04FEA91
:1070E0008E0303F1804303F5C0430978D3F81045BC
:1070F00024F4473424F44074C3F810450202090410
:10710000D3F8100501F4403102F4F8520A43024367
:10711000C3F81025002070BDAEF1080E43FA8EF3BF
:107120000C7893F85010104641EA841283F85020EE
:1071300070BD4A784FF0A04400F5E075920044F825
:107140002520BEE7A446A3E71A6000228EF830206F
:107150009646A8E74FF0090C8EF830C05A62E64612
:107160009EE74FF0010C93E74FF0080C8EF830C00B
:107170001A62E64694E700BFF82300204C24002062
:1071800030B42E4C04EB000C82B09CF93030072B4D
:107190001EDD083B44FA83F393F850309B09032B20
:1071A00041D0012B0CBF4FF400334FF4403380002B
:1071B00000F1A040D0F8002722F44032C0F80027A8
:1071C000D0F800271343C0F8003702B030BC704736
:1071D000DAB2072AF9D8980000F1804003F14002A2
:1071E00000F5C04052B29200D0F8105592B202F1B0
:1071F000804202F5C04245F00105C0F8105500205C
:10720000106012680192019A0029DED09CF93020AA
:1072100054F82220002AD8D00949012202FA03F3A7
:10722000C1F80433D1E74FF0A043D3F81035C34081
:1072300003F0010302331B04B9E700BFF823002069
:10724000006000404FF0A043D3F8103523FA00F05F
:1072500000F00100704700BF2DE9F04186B0C14A3F
:1072600000230193D2F80011012900F0CA811E46C3
:10727000BC4BD3F80421012A00F0B481B94BD3F8F8
:107280000821012A00F09F81B64BD3F80C21012A76
:1072900000F08A81B34BD3F81021012A00F07581E8
:1072A000B04BD3F81421012A00F06081AD4BD3F824
:1072B0001821012A00F04781AA4BD3F81C21012A8A
:1072C00009D0A84BD3F87C21012A00F0A78106BB86
:1072D00006B0BDE8F081D3F804231206F1D50022F0
:1072E000C3F81C21D3F81C110491D3F87C11049825
:1072F000012946F080060CD1C3F87C21D3F87C210B
:1073000005924FF0A043059AD3F81035019346F04B
:107310000046954F00240125A30003F180432E422F
:1073200003F5C0434FEA45050BD0D3F8100557F8D5
:107330002420D3F81015C0F30420C1F3014102B199
:1073400090470134082CE7D1002EC1DA00224FF01B
:10735000FF33CDE90223844C012502AE94F950009D
:10736000471C38D0C0F3C20C0CF118030DEB030717
:1073700000F0070317F80C2C05FA03F31A42C1B208
:1073800000F03F0027D02218890992F9302054F8E4
:107390002280B8F1000F00F09581032900F095815B
:1073A000820002F1A04217F8147CD2F800C71F40F7
:1073B000CCF3014C0BD0BCF1020F0CD1032900F02F
:1073C000B7810027B8F1000F06D0C04704E0BCF138
:1073D000030F00F09B81002794F95100411C33D02A
:1073E000C0F3C20E0EF118030DEB030C00F00703FF
:1073F00005FA03F21CF80C3C1342C1B200F03F0046
:1074000022D02318890993F9303054F82380B8F139
:10741000000F00F07281032900F07281830003F1F4
:10742000A04E1CF814CCDEF800371CEA020FC3F3A0
:10743000014300F03181022B06D1032900F07B814A
:10744000B8F1000F00D0C04794F95200421C33D06D
:10745000C0F3C20E0EF118030DEB030C00F007038E
:1074600005FA03F21CF80C3C1342C1B200F03F00D5
:1074700022D02318890993F9303054F82380B8F1C9
:10748000000F00F03181032900F03181830003F106
:10749000A04E1CF814CCDEF800371CEA020FC3F330
:1074A000014300F0E380022B06D1032900F046815E
:1074B000B8F1000F00D0C04794F95300431C33D0FB
:1074C000C0F3C20E0EF118030DEB030C00F007031E
:1074D00005FA03F21CF80C3C1342C1B200F03F0065
:1074E00022D02318890993F9303054F82380B8F159
:1074F000000F00F0F080032900F0F080830003F11A
:10750000A04E1CF814CCDEF800371CEA020FC3F3BF
:10751000014300F09180022B06D1032900F0118174
:10752000B8F1000F00D0C047002F3FF4D1AE4FF0AC
:10753000A043019AD3F810359A423FF4C9AE029A9B
:10754000019303920AE7D3F8042351067FF5B4AE02
:107550000022C3F81821D3F818310493049B46F095
:107560004006A9E600600040F8230020D3F8042379
:1075700090067FF59BAE0022C3F81421D3F8143196
:107580000493049B46F0200690E6D3F80423D40627
:107590007FF586AE0022C3F81021D3F81031049392
:1075A000049B46F010067BE6D3F8042315077FF50D
:1075B00071AE0022C3F80C21D3F80C310493049B64
:1075C00046F0080666E6D3F8042357077FF55CAE5D
:1075D0000022C3F80821D3F808310493049B46F035
:1075E000040651E6D3F8042392077FF547AE002244
:1075F000C3F80421D3F804310493049B46F0020637
:107600003CE6D2F8046316F001063FF431AEC2F84E
:107610000031D2F800310493049B29E600224FF098
:10762000A041C3F87C210592059BD1F81035019348
:10763000002E3FF48BAE6AE6032B7FF475AF03296F
:107640007FF46EAF4FF40032DEF8003723F440339E
:10765000CEF80037DEF800371343CEF80037B8F124
:10766000000F3FF464AF0137FFB25CE7032B7FF4F8
:1076700023AF03297FF41CAF4FF40032DEF800374C
:1076800023F44033CEF80037DEF8003701371343D8
:10769000FFB2CEF800370BE7032B7FF4D5AE0329FA
:1076A0007FF4CEAE4FF40032DEF8003723F44033DF
:1076B000CEF80037DEF8003701371343FFB2CEF8BB
:1076C0000037BDE603297FF486AE16F80C201A4376
:1076D00006F80C2064E603297FF426AF16F80E3076
:1076E000134306F80E3009E703297FF4E5AE16F8D8
:1076F0000E30134306F80E30C8E603297FF4A4AE1B
:1077000016F80E30134306F80E3087E603297FF48F
:1077100059AE4FF40037D2F8003723F44033C2F8A3
:107720000037D2F800373B43C2F80037012749E65B
:107730004FF44037EFE74FF44032B5E74FF44032B3
:107740009CE74FF440327FE7014B1B68184700BFAE
:1077500054240020104B98421BD130B583B0002335
:107760000DF107008DF807300D4601F0F9FB0B4BCA
:107770009DF807001C793CB901221D601A7101F0C7
:1077800015FC204603B030BD01F010FC112003B001
:1077900030BD0020704700BF00200040542400206E
:1077A000034B984203D1034B00221A601A717047B1
:1077B0000020004054240020134A137813BB10B457
:1077C0000378124CDB07216006D51149D1F8043546
:1077D00043F00103C1F804350D4C0E49D4F80032D2
:1077E00023F00103C4F8003243785B014FF40050EA
:1077F0000124DBB281F80D330860147000205DF8BD
:10780000044B704785207047602400205C240020D2
:1078100000D0004000E100E0074B0022C3F8002147
:1078200082B0D3F80021019201990122C3F8042308
:107830001A6002B0704700BF00D00040024B012226
:10784000C3F808235A60704700D00040084B09482D
:107850000949012210B4C3F808234FF400545A60B8
:107860000023C0F880400B705DF8044B704700BFE8
:1078700000D0004000E100E060240020074B00221F
:10788000C3F8002182B0D3F800210192019A044A82
:10789000D3F808051368C0B202B0184700D0004002
:1078A0005C2400200000000010B56F4AD2F80433B9
:1078B00099058AB068D5D2F82431002B64D0002312
:1078C000C2F82431D2F8243103934FF40171674B8D
:1078D0000398C2F8081393F8291009B901215160DF
:1078E000614902228DF81820D1F88024C1F8802443
:1078F0009FED5B7B9969D868CDE9081283ED067B23
:10790000D3E90012079006A89047574AD2F81C31D5
:10791000C3B1564B186A596988426AD293F8280055
:1079200000F0FF04002864D1C2F81C41D2F81C11F9
:10793000029102999C68186A196A205C01311962E7
:10794000C2F81C05484AD2F84431DBB10021474B4C
:10795000C2F84411D2F8440193F82910009000981D
:1079600009B1012111609A6962B1D8685C6A00218D
:107970000122CDE9070499618DF8182006A8D3E902
:10798000001290470AB010BD374AD2F804335B07A3
:10799000BBD5D2F80831002BB7D0344B99690029F8
:1079A0003CD00021C2F80811D2F8081104910499C2
:1079B000D868596AD2F8182542545A6A996901322E
:1079C0005A625A6A8A42A0D1DA69002A2FD09A6193
:1079D0001A69D8685C6ADA60002101220894D961CA
:1079E000596207905C6819688DF8182006A8A047AE
:1079F0008BE71D4A0020C2F81C01D2F81C2101921D
:107A0000019A00299ED0D3E901248DF81800CDE910
:107A100007415861196806A8904793E7C2F8081112
:107A2000D2F8080105900598D2F81825C9E793F80F
:107A3000292012B90C4A012151600B4A4FF40171FF
:107A4000C2F80813D8685C6A0021012299618DF898
:107A50001820D3E90012CDE9070406A8904754E79F
:107A6000000000000000000000200040682400200A
:107A70002DE9F0415E4E90F804802C2303FB08634F
:107A800082B093F82A30002B40F0858005460C46E2
:107A9000006858491746FFF75DFE002877D1236834
:107AA000591C0CD04FF0A041012202FA03F3C1F897
:107AB0000835236803F5E073032241F82320636847
:107AC0005A1C06D003F5E0734FF0A042002142F8A3
:107AD00023102B68A269C3F82425227D637D1343FC
:107AE0002A68C2F86C35D4E900122B68C3F8142553
:107AF000C3F80C15237D012B58D02C2303FB08F36E
:107B0000F21857602269F25077B32A68237F002168
:107B1000C2F81C11D2F81C210092009A2A68C2F8FF
:107B20004411D2F844210192019A2A683249C2F8DC
:107B300004132A6842F3073100294FEA12322EDB80
:107B400001F160415B0101F56141DBB281F8003375
:107B50002B682A4C43F307325209C3F30433012143
:107B600001FA03F344F822302B680422C3F80025FD
:107B70002C2303FB086601220023C6E9063386F89E
:107B80002930736186F82A2002B0BDE8F081112007
:107B900002B0BDE8F081082002B0BDE8F0811849CC
:107BA00002F00F025B01DBB28B54D1E7A368591CD2
:107BB00006D003F5E0734FF0A042002142F82310F5
:107BC000E3685A1C0DD04FF0A041012202FA03F3E2
:107BD000C1F80835E36803F5E073032241F8232078
:107BE000E3682A68A168C2F80835C2F8101584E76E
:107BF00068240020A97802008000020000E100E073
:107C000014ED00E0F8B5036805792E4C0022C3F8A6
:107C100000252C2303FB05435B6883B103682A4AD4
:107C2000C3F808230268294E42F307335B09C2F305
:107C300004322033012101FA02F246F823200368BE
:107C40004FF0FF32D3F80CC5D3F81475D3F80815EC
:107C5000D3F81065C3F81425C3F80C2503689445C0
:107C6000C3F80825C3F8102506D00CF5E07C4FF0CA
:107C7000A043022243F82C207B1C06D007F5E077B6
:107C80004FF0A043022243F82720721C06D006F5CD
:107C9000E0764FF0A043022243F826204B1C06D08A
:107CA0004FF0A04301F5E071022243F82120006863
:107CB000FFF776FD2C2303FB0544002384F82A30CC
:107CC0006360F8BD682400208402020000E100E047
:107CD0002DE9F041334C90F804E02C2303FB0E43D4
:107CE0008446586984B000284ED11862996083F8A0
:107CF00028005A61DCF80020C2F81C01D2F81C21CF
:107D00000292029ADCF8002001219160DCF8002048
:107D10009D68C2F81C01D2F81C1101910199196AE1
:107D20006E5C196A01311962C2F81C655A6812B199
:107D300004B0BDE8F0811A6A5E69DCF80010B24256
:107D40001BD2074602E093F828200ABBD1F81C2179
:107D5000002AF8D0C1F81C71D1F81C210392039AB3
:107D60001A6A15F802801A6A01321A62C1F81C8573
:107D70001A6AB242EAD3DCF80010D1F81C31002BA9
:107D8000FBD00123CB6004E0112004B0BDE8F081FA
:107D90000F202C2303FB0E440023636104B0BDE8D5
:107DA000F08100BF6824002010B54B4BD3F824218C
:107DB00088B0002A47D00022C3F82421D3F8241128
:107DC000029102228DF810200299444AD3F88014BF
:107DD000C3F880149FED3E7B0791D3F83C45D068F3
:107DE00082ED067BCDE90504D2E9001304A898478B
:107DF000394BD3F8442152B10021384AC3F8441119
:107E0000D3F84401916901900198002942D1324B85
:107E1000D3F82021AAB10020C3F82001D3F8201103
:107E20002E4A00910099516959B1D3F84C458DF80B
:107E30001000D2E901315061CDE9051404A81168A0
:107E4000984708B010BDD3F810110029D0D0C3F85E
:107E50001021D3F81011214C03910399A169D3F893
:107E60003C058842C4D1E16931B3C4E90612D3F8B4
:107E7000002222F02002C3F80022E26805920121CC
:107E800022698DF81010069063682168E26004A8EA
:107E90009847ADE79FED0E7BD3F83C45D0684FF097
:107EA000010CCDE9050482ED067BD2E900138DF8C3
:107EB00010C004A89847AAE7E268A1610123CDE9B0
:107EC00005208DF8103004A8D4E9001398478FE7F7
:107ED0000000000000000000002000409824002066
:107EE0002DE9F0430779684E07EBC70306EB8303E0
:107EF00085B093F82030002B40F0988004460D4662
:107F0000006862499046FFF725FC002840F08A800F
:107F10002B68591C4FEAC7090CD04FF0A041012231
:107F200002FA03F3C1F808352B6803F5E073032266
:107F300041F823206B685A1C06D003F5E0734FF01C
:107F4000A042002142F823102368AA69C3F824251F
:107F50002B7D6A7D1A432368C3F86C25D5E900316F
:107F60002268C2F80C35C2F814152B7D012B68D09D
:107F700009EB070206EB8203C3F804802B6946F87D
:107F80002230B8F1000F3CD021682B7F0022C1F8CD
:107F90001021D1F81011009100992168C1F8202119
:107FA000D1F82011019101992168C1F82421D1F85B
:107FB0002411029102992168C1F84421D1F8442189
:107FC0000392039A22683249C2F80413226842F3EA
:107FD000073100294FEA12322CDB01F160415B01CD
:107FE00001F56141DBB281F800332368294D43F389
:107FF00007325209C3F30433012101FA03F345F8B0
:1080000022304F4406EB870622680121002386F8C0
:1080100020100821C2F80015C6E90633736105B0C7
:10802000BDE8F083112005B0BDE8F083082005B05D
:10803000BDE8F083184902F00F025B01DBB28B54FC
:10804000D3E7AB68591C06D003F5E0734FF0A042AC
:10805000002142F82310EB685A1C0DD04FF0A041CC
:10806000012202FA03F3C1F80835EB6803F5E07367
:10807000032241F82320EB682268A968C2F808357A
:10808000C2F8101574E700BF98240020A97D0200F3
:108090001003020000E100E014ED00E0F8B50579FE
:1080A0000368304C0022C3F8002505EBC50304EB40
:1080B0008303EE005B6883B103682B4AC3F808238F
:1080C00002682A4F42F307335B09C2F304322033BC
:1080D000012101FA02F247F8232003684FF0FF3232
:1080E000D3F80CE5D3F814C5D3F80815D3F81075F8
:1080F000C3F80C25C3F8142503689645C3F8082572
:10810000C3F8102506D00EF5E07E4FF0A043022202
:1081100043F82E20BCF1FF3F06D00CF5E07C4FF079
:10812000A043022243F82C207A1C06D007F5E07702
:108130004FF0A043022243F827204B1C06D001F544
:10814000E0714FF0A043022243F82120354404EBB4
:1081500085040068FFF724FB002384F82030636067
:10816000F8BD00BF982400201003020000E100E0E9
:1081700001F0604CBCF1005F30D170B590F804E0C4
:10818000244C0EEBCE0C04EB8C0C0346DCF81400F4
:1081900082B04FEACE05002836D1CCF81420CCF8B6
:1081A00008101A68C2F82001D2F820210192019A21
:1081B0001A68C2F85801D2F858210092009A1A6839
:1081C000DCF81460C2F84415C2F848651A68012149
:1081D0009160DCF804201AB102B070BD1020704725
:1081E0001B6800E098B9D3F82021D3F85801002A81
:1081F000F8D0002818BF0F2005EB0E0304EB830313
:1082000000225A6102B070BD112002B070BD0F2073
:10821000F2E700BF9824002010B44FF0704393F8A9
:10822000E02F062A23D04FF08053D3F83021062ABE
:1082300000F09880CD4AD2F8883043F47003C2F839
:108240008830BFF34F8FBFF36F8F4FF01023D3F8F9
:108250000022002AC0F29C81D3F80432002BC0F225
:108260009781C34BC34A1A605DF8044B7047D3F83B
:10827000E42F1207D7D1D3F8E83F03F0F002302AF9
:1082800000F0C18003F0E003402B00F0BC804FF011
:108290007042D2F8E83F03F0F003302B00F0C980C1
:1082A0004FF07043D3F8E83F03F0F002302A00F0BB
:1082B000938003F0E003402B00F08E804FF070427B
:1082C000D2F8E83F03F0F003302B00F03C814FF090
:1082D0007043D3F8E83F03F0F002302A66D003F091
:1082E000E003402B62D04FF07042D2F8E83F03F039
:1082F000F003302B00F017814FF07042D2F8E83FC6
:1083000003F0F003302B00F0F4804FF07041D1F80F
:10831000E83F03F0F003502B00F099804FF07043DA
:10832000D3F8E83F03F0F002302A28D003F0E0034E
:10833000402B24D04FF07043D3F8E83F03F0F00215
:10834000302A04D003F0E003402B7FF46CAF4FF0F1
:108350008043D3F80024D20744BF6FF00102C3F872
:10836000002460E7D3F83431062B7FF463AF824AF0
:10837000D2F83C3743F48063C2F83C375AE74FF0F9
:1083800080534FF07042D3F8583292F8E01F4FF00C
:10839000804003F04F030629C0F8E43E7FF443AF6A
:1083A000D2F8E43F19077FF43EAFC3E74FF07041C6
:1083B0004FF0804391F8E00F00220628C3F80C210B
:1083C000C3F81021C3F838257FF42DAFD1F8E43F6E
:1083D0001A077FF428AF86E74FF080534FF07042C2
:1083E000D3F8443292F8E01F4FF08040C3F3423399
:1083F0000629C0F83C357FF416AFD2F8E43F1807E1
:108400007FF411AF5AE74FF080534FF07042D3F82A
:10841000243392F8E01F5948C3F304230629C0F817
:1084200040357FF400AFD2F8E43F1B077FF4FBAE8A
:108430002DE792F8E03F524952484867062B7FF4F7
:10844000F2AED2F8E43F1C077FF4EDAE28E74FF020
:1084500080524D4BD2F80404C3F82005D2F808042A
:10846000C3F82405D2F80C04C3F82805D2F8100488
:10847000C3F82C05D2F81404C3F83005D2F8180458
:10848000C3F83405D2F81C04C3F84005D2F8200420
:10849000C3F84405D2F82404C3F84805D2F82804E8
:1084A000C3F84C05D2F82C04C3F85005D2F83004B8
:1084B000C3F85405D2F83404C3F86005D2F8380480
:1084C000C3F86405D2F83C04C3F86805D2F8400448
:1084D000C3F86C05D2F8440491F8E02FC3F8700596
:1084E000062A7FF4A0AED1F8E43F18077FF49BAED4
:1084F00014E792F8E01F254B05240120C3F810462D
:108500000629C3F888064FF000044FF03F00C3F877
:108510001846C3F814067FF486AED2F8E43F1C0771
:108520007FF481AEF1E692F8E03F4FF08041032006
:10853000062BC1F8A0057FF476AED2F8E43F1B0706
:108540007FF471AED8E6094992F8E00FD1F8FC301B
:10855000062823F08073C1F8FC307FF464AED2F8B3
:10856000E43F19077FF45FAEB1E600BF00ED00E025
:10857000202200200090D003001000400030014075
:1085800000C007400DF0ADBA00C0004000500040F0
:10859000184A0123C2F80435D2F80034002BFBD06E
:1085A0004FF010231521134AC3F80012D2F80034FB
:1085B000002BFBD04FF0102315210E4AC3F80412F4
:1085C000D2F80034002BFBD000230A49C2F804354E
:1085D000D1F80034002BFBD0BFF34F8F0649074B77
:1085E000CA6802F4E0621343CB60BFF34F8F00BF51
:1085F000FDE700BF00E0014000ED00E00400FA05E7
:108600002DE9F04F3C4B93F800B083B0BBF1000F65
:108610005DD00027DFF8E880DFF8E89000973C465F
:10862000012505E0009B0133DCB2A34500934ED940
:10863000324BD8F800201E68D8F8041016F8340021
:10864000A0F1200CC0F1200305FA0CFC25FA03F37D
:108650004CEA030305FA00FC06EBC40702EA0C0A25
:1086600001EA030E01975AEA0E07DBD021EA030361
:1086700022EA0C02C8F80430C8F80020FEF7E2FD38
:1086800016F834200146A2F12003C2F1200025FA99
:1086900000F005FA03F30343D9F8000005FA02F4E9
:1086A0000440D9F80400C2F120060340A2F12000E2
:1086B00021FA06F601FA00F0304301FA02F683428D
:1086C00008BFB44206D00C4B93F800B0AAE703B041
:1086D000BDE8F08F019B10465A68002AF3D05B7802
:1086E000A3F10103B3FA83F35B09591AB1FA81F1DB
:1086F00049099047E7E700BFBC240020F824002088
:10870000F0240020E8240020F8B507461F4800F0B8
:10871000EBFBD0B901231E4EA7F12004C7F12002C4
:1087200023FA02F203FA04F4144303FA07F5326859
:10873000736802EA050003EA0401014306D022EA55
:10874000050223EA0403C6E90023F8BD3846FEF714
:1087500079FD104B1968A0B95A6821EA050122EA8F
:108760000402C3E90012D6E900210B4B07482A4353
:108770000C433260196874600022BDE8F84000F0D4
:108780005BBB5A6829432243EBE700BFC4240020A7
:10879000F0240020E8240020C0240020042A3BD933
:1087A0002DE9F04182B0144605460E46FEF7EAFB7D
:1087B00068B31E4B1E4A1E701E4B1F491C6015607D
:1087C00000230022C1E900231C49741EC1E90023D3
:1087D000E4B21EB3DFF8708005EBC4040027032663
:1087E00002E0AC421AD01C46A37820788DF8053000
:1087F000424601A98DF806708DF80460FEF7CCFBA7
:10880000A4F108030028ECD002B0BDE8F081FEF727
:1088100071FB0028CDD0F7E707207047084A0948C8
:10882000002102B0BDE8F04100F0F4BABC24002001
:10883000F8240020C0240020E8240020F024002098
:1088400001860200307F03000987020070B5084DE1
:108850002B785BB1074E00243368012113F83400F4
:10886000FEF78EFC2B780134A342F5D8002070BDB2
:10887000BC240020F824002000B585B00346002168
:1088800001AA44F20100CDE90111039300F004F8BC
:1088900005B05DF804FB00BF10B572B603F0B8FF79
:1088A00003F0AEFA0028FBD1104B114C1149E41A29
:1088B000E408240444F0010003F0E6FB0E4BD3F877
:1088C000F030DB0700D500BE0C4944F0020003F095
:1088D000DBFBBFF34F8F0849094BCA6802F4E06223
:1088E0001343CB60BFF34F8F00BFFDE724CD0300E0
:1088F0004CCD0300347F030000ED00E0407F030017
:108900000400FA05F8B5204A204B0024C2F8404183
:10891000C2F84441C2F84841C2F84C41C2F8004193
:10892000C2F804411B6833B31949D2F804550A68E8
:10893000AD1A1A6825F07F45AA4227460DD8197C42
:10894000DE69AD1A144419B1D3E905201F749047AC
:108950001EB133461A68AA42F1D90E490E4A0B7865
:1089600012789A4208D00D480D4A40F823404FF43F
:108970008011C2F80011F8BD531CDBB2022B08BFF6
:1089800000230B70EFE700BF001001401C26002001
:108990001826002015260020142600200C26002072
:1089A00000E100E02DE9F04FA44AA54913780978C9
:1089B000994285B000F07E810133DBB2022B08BF03
:1089C0000023A0481370A04A0568DFF8948252F88B
:1089D0002310D8F800C06B1823F07F430360BCF16C
:1089E000000F00F0B3810024634626462746A646C2
:1089F00012E0DC68D8691F609644891A3CB105EB27
:108A00000E0222F07F42C3E90124DE611E460124EA
:108A1000002800F0568103461A688A42E9D9002CE2
:108A200000F08281C8F800309946521A1A6001237A
:108A30000293864B864FDFF82CA243F001034D468C
:108A400003934FF0000B7EB3D6E901033446F66979
:108A50007C4ADFF814C21268811A21F07F41614517
:108A600000F297800B4423600022C4E90122E261F6
:108A700001222274002D00F0A4802968994280F020
:108A800099802A4604E01068984280F09E80014652
:108A90009646D2699C465B1A002AF4D17046236040
:108AA000E261C461002ECFD178783978884219D03C
:108AB000BA780B460131C9B203EB43038A4207EB94
:108AC000C30239701379946804BF00213970022BF6
:108AD00000F08F80032B00F08180012B00F0978045
:108AE0008142E5D1BBF1000F01D14D452BD07DB3C3
:108AF000544A584B1468D3F80465574FD5F8008092
:108B00003A78351B25F07F450335002A00F0DE80DA
:108B10005049A8452CBF4444641924F07F43C1F850
:108B20004035D1F80425921B9B1B22F07F42033273
:108B300023F07F439A4200F2E28000238AF800305B
:108B400005B0BDE8F08F029B002BF6D0002DCFD1F1
:108B5000424B404E3D4C4FF40032C3F88020012779
:108B60004FF48033C6F848333C43C6F808334FF41B
:108B70003C607760A047334BB7604FF43C601D60AA
:108B8000A047354B1D7000238AF8003005B0BDE8C2
:108B9000F08F121A22F07F429A4202D29B1A23606F
:108BA00062E700230122C4E90033A360E361227479
:108BB0003DB12968C8F80040CB1A2B60E561254615
:108BC00041E7C8F8004025463DE7CDF804E0864679
:108BD0007144A1EB0C010198116060E7002D3FF496
:108BE00065AF00232B74ED69002DFBD1C8F8005050
:108BF0005AE74DB1AC4252D02B4601E09C4235D0F1
:108C00001A46DB69002BF9D10023237468E7237C23
:108C1000002B7FF465AFD06860609C461369A36049
:108C20005169E16091699AF80020A161002A3FF43E
:108C30000FAFC4F804C060460AE700BF1426002046
:108C400015260020182600200C260020507F030047
:108C5000FC240020001001400926002000E100E073
:108C60001C26002008260020FEFF7F00944217D01B
:108C7000E1692368D16169B128460A6813440B6031
:108C8000A84207D0002305463978787823744FF03E
:108C9000010B25E7002339787878237420E72A46EA
:108CA000E869C8F80000002840D0D169136800299D
:108CB000E3D1E5E7DFF8B0800026D8F8009002960F
:108CC000B7E68146C8F800000294B2E62249234A7A
:108CD0004FF48030C3F844034FF00109C3F8040394
:108CE0004FF40030C1F8800142F001020860C3F87F
:108CF00000904FF43C60904787F8009008E7174BCE
:108D0000D1F80425C1F8402543F001034FF43C603D
:108D10009847114B4FF40032C3F8002100238AF822
:108D2000003005B0BDE8F08FE1467EE601920C4AC6
:108D30000C490123936008608AF800304FF43C60CE
:108D4000039B9847D8F80000019AAEE70123E1465B
:108D5000664602936DE600BF00E100E0507F03002D
:108D600000100140182600201C2600202DE9F843A1
:108D70001F4D204E204FDFF898804FF480334FF482
:108D800000324FF001090024C6F8802047F00107A7
:108D9000C5F848334FF43C60C5F80833C5F8049073
:108DA000B847C5F808904FF43C60C8F80040B84791
:108DB000124B13491C70134B0C801C60124B1C701F
:108DC000124B4FF480121C700B20C0238870C6F821
:108DD000802186F814333260C5F8084586F81133CF
:108DE000D5F80435C8F800302046BDE8F88300BF48
:108DF0000010014000E100E0507F03000926002040
:108E0000FC2400201C26002014260020152600200B
:108E100018260020074B9B783BB142B138B103685C
:108E2000187C10B959745A617047082070470720A0
:108E3000704700BFFC2400202DE9F043274EB37893
:108E400083B0002B3BD00446002838D004290D46BF
:108E500039D943699BB3437C0027012B0DF10700EF
:108E60000CBF88464FF0000891468DF8077000F05F
:108E700077F87378B278591CC9B28A4208BF39466C
:108E800032788A4223D003EB430306EBC30301206D
:108E9000134A18719C60D2F804259DF80700717080
:108EA000C3E90325C3E9058900F080F80D4B4FF4B1
:108EB0008012C3F80021384603B0BDE8F0830820D3
:108EC00003B0BDE8F083072003B0BDE8F0839DF850
:108ED000070000F06BF80420EEE700BFFC24002040
:108EE0000010014000E100E070B51B4CA37882B097
:108EF0004BB3054638B343692BB3002606740DF116
:108F000007008DF8076000F02BF86278A178531CF9
:108F1000DBB2994208BF33462178994216D002EB62
:108F20004202637004EBC20402239DF80700237120
:108F3000A56000F03BF8094B4FF48012C3F8002104
:108F4000304602B070BD082002B070BD9DF8070029
:108F500000F02CF80420F4E7FC24002000E100E0FD
:108F600070B4EFF3108472B60D4B9A68AAB9012160
:108F700099600C490C4ED1F8805035401D60C1F805
:108F80008060D1F884505D604FF0FF33C1F88430C9
:108F9000027004B962B670BC704701230370F8E731
:108FA0002026002000E100E0FC06FFBD094B9A6886
:108FB0007AB170B910B4EFF3108172B6064A1C682A
:108FC00014605C685460986001B962B65DF8044B47
:108FD000704770472026002000E100E00223F0B532
:108FE0000B8000F5805E08306AB3284D4FF6FF74A1
:108FF0000126036801331CD0478807F1030C00EBFE
:109000008C0CE64516D38388A34219D00388BBB1E4
:10901000D5F800C08368634501D92B6047880B8869
:1090200003333B440B804388033300EB83008645C6
:10903000DFD8F0BD012313704FF480630B80F0BDC7
:1090400016704788EBE7114D4FF6FF740368013344
:10905000EFD04388DA1C00EB82029645ECD382887D
:10906000A24207D002882AB12E688268B24284BF29
:109070002A6043880A88033213440B8043880333F1
:1090800000EB83008645E1D8F0BD00BF64260020D8
:109090002DE9F041436888461BB1324AD468A342A7
:1090A0003AD2314E0023A8F800307268012702F549
:1090B000805C4FF6FF75083294450DD8022FA8F852
:1090C000007006F114064AD0726802F5805C08321E
:1090D00094454FF00207F1D913680133EED053885D
:1090E000033302EB83039C45E8D3B2F804E0AE45BA
:1090F00007D014882CB1946801688C4205D01A46B8
:10910000DAE79C45DAD91A46E6E7184B42601B8934
:1091100003810120BDE8F08112699342C1D813F0A8
:109120000305BED1114A048912899442B9D1046859
:109130009A689442B5D10C484268934203D902F52B
:109140008052934207D38269934208D902F5805234
:10915000934204D20125A8F800500120DAE700204C
:10916000D8E700BFDC2200206C260020502600201B
:109170002DE9F04FA74F89B004464FF6FF783E68BF
:10918000002E00F0BB803278531E052B00F23B838B
:10919000DFE803F058202003033E002C40F0B580A8
:1091A0003379012B00F06781022B00F0F280002B55
:1091B00000F0848103AD0394C5E902442C610F24BF
:1091C00004943378023B042B4BD8DFE803F08B7711
:1091D0006B644700B6F814A0002C40F0A580DFF8BF
:1091E0005C920AEB8A0309EB83034FEA8A051C8928
:1091F0005B6803EB8404B37D062B00F23784DFE861
:1092000013F0D801E601F801450212022C02B10167
:10921000002C7AD1DFF820C29CF80C30002B00F033
:109220001B819CF800308CF80C40013B062B00F2AF
:10923000EA82DFE813F0D103BE0293025602E8028D
:10924000A8028302002C69D13379032B00F2CC8071
:10925000DFE813F0F6008E00D400A60005238DF899
:109260000C306D4C04F1100654F8043B284603B151
:109270009847A642F8D16949694800243C6001F04A
:1092800085F96848012101F051FA00287FF477AF91
:1092900009B0BDE8F08F04238DF80C30F388ADF8E9
:1092A0001830DEE703238DF80C30F388ADF8183062
:1092B0003389ADF81A30F3680593D2E702238DF8AD
:1092C0000C303389ADF81830B388ADF81A30F36834
:1092D0000593B37DA3F10603B3FA83F35B098DF81D
:1092E0001C30BEE701238DF80C303389ADF81830FF
:1092F000B388ADF81A30F3680593B2E74749484898
:1093000001F012F9064638603DE7012403AD002361
:10931000C5E90033C5E902332B6151E7424B002216
:109320005A60012403ADF2E7B37DDFF81091022B00
:1093300008D90AEB8A0209EB8202F3881189033308
:109340000B4413814FEA8A055544F38809EB8509DC
:10935000C3F57F43B9F80A20FD33134403ADA9F8E0
:109360000A30002303930124C5E902332B6127E768
:10937000DFF8C89099F80030022B00F0618399F86B
:109380001430022B00F06C83274B01221A7000224C
:109390005A6003AD00240394C5E902442C610FE731
:1093A000224C234A23480025357100950823216863
:1093B00001F014FE204BB3F8029009EB8903DFF8AB
:1093C0007C9009F8235009EB83092368D9F804201D
:1093D000C9F80430A388A9F8083002232260A380CA
:1093E00000283FF455AF3E680F4A03AD00230393B6
:1093F0005360C5E902332B610E24E1E60B4A0D48A8
:1094000000230221337191801168012201F078FE5E
:10941000E6E700BF682600203826002060260020EE
:109420002027002030270020482600203427002055
:109430005C7F0300DC220020502600206C260020E8
:109440000123B549337100230968B44A0093B44835
:10945000082301F0C3FDC3E79CF80030072B00F29E
:10946000DA81DFE813F00A02D801D801ED013E02EB
:109470006B016B013802AB4B1B78002B00F09E8216
:10948000DFF8A4C2BCF80450012D10D8DFF8A89270
:1094900005EB8502204609EB82021378FBB101350A
:1094A000ABB2012BACF8045002F11402F5D99E487E
:1094B000082200210EF01AF93E686AE70223337190
:1094C000CDE9044403ADF36803930DF10A01284686
:1094D000FFF7DEFD002840F0EA800A2417E7536812
:1094E000DCF8001003F5805E03F1080A002900F0A3
:1094F0005E824B88033301EB83018E4540F25B8231
:109500000B68013300F057824B88033301EB830370
:109510009E45C0F050828C8844451BD0B1F800B005
:10952000BBF1000F16D0F388CCF80010A342DDD1B8
:10953000002300937D4A7A48042301F04FFD002860
:1095400040F0908205EB850509EB8509012389F838
:1095500010309DE69E4540F22E8219460B6801337D
:10956000D2D128E2324641F61D5405EB0A0109EB3F
:109570008101F3880889033303440B815544F38840
:1095800009EB85091646C3F57F43B9F80A20FD3378
:109590001344A9F80A3003AD41F61D52002394424A
:1095A000039308BF1C46C5E902332B613FF408AEA4
:1095B0000FE20223B3750023009304235848214689
:1095C000F21801F00BFD38BB09B0BDE8F08F032A9B
:1095D0000CBF05230623B375002300935048211DBB
:1095E000042306F1080201F0F9FCA8B909B0BDE8AE
:1095F000F08F33694A48002B14BF03230123B3754E
:109600000023009304F10801042306F10C0201F089
:10961000E5FC00283FF43CAEB37D3A68022B4FF0E6
:109620000E04ABD9A1E74248B369424903604FF049
:10963000000BC0F804B0FFF72BFD002800F0E88114
:109640000223B37504233648CDF800B02146F21842
:1096500001F0C4FC0028DFD11AE6354B334A5968C3
:10966000344B2F481C880623B37500230093042332
:1096700001F0B4FC0028CFD104EB840309EB83098B
:10968000012389F8103009B0BDE8F08FF388326902
:109690000120B0750020009004F10C0120489B00CF
:1096A00001F09CFC0028B7D109B0BDE8F08F049907
:1096B0001E4A8B88F3800B88338119480094042359
:1096C000BDF80A4001F08AFC002840F0A9811A4B3D
:1096D00004EB840403EB84040123237409B0BDE884
:1096E000F08FBCF80230DFF8509003EB830309EBF6
:1096F0008309D9F80C30002B77D1D9F80410084829
:1097000004228CF80020012201F0FAFC0446002C0F
:109710003FF4BEAD3E683EE734270020647F03007F
:10972000DC2200204826002044270020587F030028
:109730002C260020402700206C260020BA4ABB4877
:109740001168002307228CF800200093B84ACCF857
:109750000430082301F042FC0446D8E7DCF804207A
:10976000B148538884880168033301EB84010020E9
:1097700003249BB200909B008CF80040AB4801F0A2
:109780002DFC0446C3E7BCF80220DFF8B09293003A
:10979000134409EB830906240023D9F80410A54AD1
:1097A0000093A2488CF80040082301F017FC0446FF
:1097B000ADE7BCF80200DFF88492DCF8042000EB8F
:1097C000800309EB83038500596801F58054002A62
:1097D0004ED101F10802A242C0F09B80284409EB5F
:1097E0008009D9F80C30002B89D08F4A8F48052387
:1097F000022191808CF8003011680023012201F0D1
:109800007FFC044683E703AD002303930F24C5E9DF
:1098100002332B61D4E4013B062BF4D801A252F8A9
:1098200023F000BFD9990200B39702005D970200B0
:10983000E396020007980200879702003D97020016
:10984000BCF80200DFF8F491774CDCF8042000EB60
:10985000800309EB830355885968A38803332B449D
:10986000A38002238CF8003000FA03F501F5805440
:109870005388033302EB8302ADE7DFF8C091BCF8F5
:10988000083099F814200133ACF80830B2FA82F2AB
:1098900099F800305209B3FA83F38CF80B200022B8
:1098A0005B09ACF802208CF80C2001228CF80A30FD
:1098B0008CF80020002B40D0DFF8809100238CF83A
:1098C0000A30D9F80C30002B37D199F81020002A33
:1098D00033D01C4641E001238CF800309CF80A305C
:1098E000E8E7BCF80220DFF854914F4802EB82030E
:1098F00009EB8303848801681C815C68596002233A
:109900008380046002FA03F342E7A342BFF466AF28
:109910001A46136801333FF461AF5388033302EBF7
:109920008303A3423FF65AAF96884645EDD016888A
:10993000002EEAD0CCF8042012E79CF80B304BB391
:10994000DFF8F89000238CF80B30D9F820300BBBEF
:1099500099F82430F3B101242346ACF8023004EB2B
:10996000840309EB8303DCF804205968A00001F5A7
:109970008055002A49D05388033302EB8302954275
:109980002DD8204409EB8009D9F80C30002B3FF486
:10999000B6AE2AE703AD002303938CF80030C5E987
:1099A0000233ACF80230CCF804302B6108E45146A5
:1099B0008E453FF6A5ADCCF8000070E503AD21461D
:1099C0001D4808220DF092FE0394C5E902442C6163
:1099D00002243E68FFF7F4BB9CF80A306AE713687C
:1099E0000133CED05388033302EB83039D42C8D3A7
:1099F0009688464502D01688002E9BD19D42C0D93C
:109A00001A4613680133EDD1BBE701F10802B6E74E
:109A100003AD03900A24C5E902002861FFF7D0BB1B
:109A20003E680E2473E400BF34270020DC220020AF
:109A3000647F03005C7F0300442700206C26002025
:109A4000002303EB830309EB83020A4851680022D9
:109A500009F8232000920823074A01F0BFFABFE467
:109A60000123EEE73E680E2403AD50E432460F2496
:109A70007BE500BFDC2200205C7F03004068FFF72D
:109A800077BB00BF084A116804290BD038B5074CD2
:109A9000156803460121104644F8253000F03AFECF
:109AA000002038BD0C2070473C27002038260020BD
:109AB0002DE9F04F964D89B02A780023CDE9033384
:109AC000CDE90533079372B1924C04F1100554F8B7
:109AD000043B03A803B19847A542F8D100242046CF
:109AE00009B0BDE8F08F281D02F0FF0800F02AFE43
:109AF0000028F3D1D8F8F83F5C1C48D04FF08052D2
:109B000011695269DFF82C928349C9F8103000229C
:109B1000A3F540534846C9F80C3001F027FA044633
:109B20000028DCD11C237D497D48DFF80CA28C2263
:109B300000F07EFC0323DFF804E20193264627466B
:109B4000D9F80C107018024668B3715871452AD1C3
:109B50004168744B994200F08B80DFF8E4C16145A5
:109B600021D1B8F1000F40F09C80DFF8D8B16E49E8
:109B7000CBF800000022FFF731FABBF80420DFF831
:109B8000BCE1022A0CBF04220822144323E04FF058
:109B900010234FF080525B6911695269581C08BF4D
:109BA00002FB01F3AEE700F5805C01E0944549D08B
:109BB0001168013102F10402F8D0019B5A1E93B2E0
:109BC00007EB87020AEB82010137486003210AF89C
:109BD00022100193BFB206F58056B6F5405FAFD1B3
:109BE000019B012B40F28980E4B2062C0ED1494C36
:109BF000012200232A706B6004F1100554F8043B25
:109C000003A803B19847AC42F8D167E702D814F033
:109C1000FD0F72D002A9424800F044FC1C22054608
:109C200000210DF063FD002D65D00123013C2B7058
:109C30000A2C48D8DFE804F04547454759475947BB
:109C4000565C5600DFF8FCB0DBF80020002A56D046
:109C5000364907EB870C0AEB8C024F800221013753
:109C60000AF82C105060BFB2118144F00104B2E731
:109C700007EB870C0AEB8C024FEA8C01506001F174
:109C8000100208314FF0000E5244514401370AF8D7
:109C90002CE044F00204FFF7A1F9BFB2DFF89CE02A
:109CA00099E707EB870C0AEB8C02DFF898B00221EA
:109CB0000AF82C1001371181DBF800105160BFB297
:109CC00055E700232B7102A9154800F01DFC184828
:109CD000012100F013FD044600287FF4FFAEFFF7DA
:109CE00047FAFCE603232B71EDE701232B71EAE72A
:109CF00002232B71E7E70824F1E60B24EFE60222AA
:109D0000CBF80000ABF804204FF00108ADE700BF2E
:109D10004826002038260020848103009426002055
:109D200020270020FE011EF13827002050260020A9
:109D300030270020DC2200206C260020DEC0ADDEB3
:109D4000FF011EF13427002020B370B50D4682B00C
:109D5000E9B10DF106010446FFF79AF910B90A209E
:109D600002B070BDBDF806000B4B666800EB8000CA
:109D700003EB800001210C3000F0CCFC2E60636806
:109D800001220C3300206B60A27202B070BD05206E
:109D900002B070BD052070476C26002000B310B5DE
:109DA00082B00DF106010446FFF772F9A8B1BDF8C3
:109DB00006300C4A03EB830302EB8303DA684AB1F3
:109DC000A27A3AB1DA680021013A0846DA60A17253
:109DD00002B010BD062002B010BD0A2002B010BDB6
:109DE000052070476C2600202DE9F0474D4B1B786D
:109DF00082B073B30C46002941D00A884FF6FF7336
:109E00009A4221D04B88FBB14D6815F0030531D142
:109E1000B1F8089009F103039BB240F2FD3293427E
:109E20002FD8414A1178074639B950891189014420
:109E3000194489B2B1F5806F25D3117D71B1072521
:109E4000284602B0BDE8F0870425284602B0BDE8E8
:109E5000F0870225284602B0BDE8F087D08B918BB1
:109E60000144194489B2B1F5806FE8D24FF001087E
:109E7000C2460AE00325284602B0BDE8F087052562
:109E8000DEE70925DCE7A846AA460AEB8A0A02EBC8
:109E90008A0A034401A92548AAF80A3000F002FB07
:109EA0001C22064600210DF021FC002E2FD0A6F822
:109EB000148002234FF0000886F816803370636820
:109EC000336101211A4800F025FCF06023883381BA
:109ED00063881648B38001A9A6F80690A6F80A8000
:109EE00000F012FB47B1C7F80480F268114B3A60EA
:109EF0001B8987F80A803B810F48012100F0FEFB97
:109F0000044600289CD1FFF733F9254698E7BAF8B4
:109F10000A30C9F57F4909F1FD099944AAF80A9068
:109F200008258DE7482600206C26002020270020E9
:109F30006426002050260020302700202DE9F0471D
:109F400082B060B34E4B1B78002B3ED00C4631B331
:109F50000A884FF6FF739A4232D04B8883B34E681B
:109F600016F0030636D1B1F808A00AF103039BB23C
:109F700040F2FD3293422FD8424A1178054639B952
:109F8000518910890844184480B2B0F5806F25D3F8
:109F9000117D49B10726304602B0BDE8F08705269D
:109FA000304602B0BDE8F087D18B908B084418444E
:109FB00080B2B0F5806FEDD24FF00109C8460FE0D6
:109FC0000426304602B0BDE8F0870226304602B0D3
:109FD000BDE8F0870326DEE70926DCE7B146B04698
:109FE00008EB880802EB88080B442748A8F80A30D9
:109FF00001A900F057FA1C22074600210DF076FB5C
:10A00000002F32D04FF000080323A7F8149087F8F0
:10A0100016803B7063683B6101211C4800F07AFBAD
:10A02000F86023883B816388BB800423A7F806A0DF
:10A03000BB752B68BB6101A91348A7F80A8000F023
:10A0400063FAC5F80480FA68114B2A601B8911482D
:10A0500085F80A802B81012100F050FB044600287E
:10A0600099D1FFF785F8264695E7B8F80A30CAF582
:10A070007F4A0AF1FD0A9A44A8F80AA008268AE74E
:10A08000482600206C26002020270020642600207F
:10A09000502600203027002070B51B4B1B7882B063
:10A0A0000BB34FF6FF739842044624D001A917481A
:10A0B00000F0F8F91C22054600210DF017FBB5B1A0
:10A0C000052301262B70EC8001A910482E7100F0A9
:10A0D0001BFA0F48314600F011FB044678B100240A
:10A0E000204602B070BD0224204602B070BD082494
:10A0F000204602B070BD0424204602B070BDFFF7B8
:10A1000037F8204602B070BD4826002020270020E6
:10A110003027002010B5184B1B7882B0F3B101A98D
:10A12000164800F0BFF91C22044600210DF0DEFAAB
:10A13000ECB106232370114801A900F0E5F9104B9A
:10A140001A780AB101221A730E48012100F0D6FADA
:10A15000044638B10024204602B010BD0224204637
:10A1600002B010BDFFF704F8204602B010BD08246D
:10A17000204602B010BD00BF482600202027002046
:10A1800050260020302700202DE9F047334C24785A
:10A19000002C5BD0002A5CD0002B5AD09C88012C6C
:10A1A0005AD82F4D661C04EB840405EB84058A46BF
:10A1B0002C78B6B24FF6FF774FF0000844B1022E6C
:10A1C0009E8005F1140547D02C780226002CF6D18C
:10A1D0001C68D5F804C00CF5805EA4B3B4F802C0C6
:10A1E0000CF1030C04EB8C04744505D3C3F8008018
:10A1F000E5E7E645FAD9644621680131F6D0B4F8BE
:10A2000002C00CF1030C04EB8C0CE645EED3B4F861
:10A210000490B945EDD0B4F80090B9F1000FE8D042
:10A220001C60B4F804C08445D3D1B4F800C0D44550
:10A23000CFD1A168116019680A4B51601B89138145
:10A240000020BDE8F0870CF10804CDE70220BDE84E
:10A25000F0870520BDE8F0870A20F2E748260020B5
:10A260006C26002050260020334B1B78002B5CD03E
:10A2700000295CD0002A5AD02DE9F043B2F804E05E
:10A28000BEF1010F55D82D4B0EF101050EEB8E0ED0
:10A2900003EB8E0EADB29EF800304FF6FF764FF016
:10A2A00000094BB1022D95800EF1140E41D09EF89D
:10A2B00000300225002BF5D11368DEF804C00CF540
:10A2C00080547BB3B3F802C00CF1030C03EB8C0396
:10A2D000A34205D3C2F80090E4E76445FAD9634687
:10A2E0001F680137F6D0B3F802C00CF1030C03EB82
:10A2F0008C0C6445EED3B3F80480B045EDD0B3F8D0
:10A300000080B8F1000FE8D013601C888442D4D1DB
:10A310009B680B6012680A4B4A601B890B81002006
:10A32000BDE8F0830CF10803D2E702207047052056
:10A3300070470A20F4E700BF482600206C26002062
:10A3400050260020334B1B78002B5CD000295CD0BA
:10A35000002A5AD02DE9F043B2F804E0BEF1010F13
:10A3600055D82D4B0EF101050EEB8E0E03EB8E0E24
:10A37000ADB29EF800304FF6FF764FF000094BB1BA
:10A38000022D95800EF1140E41D09EF8003002256A
:10A39000002BF5D11368DEF804C00CF580547BB3B4
:10A3A000B3F802C00CF1030C03EB8C03A34205D3FA
:10A3B000C2F80090E4E76445FAD963461F680137A4
:10A3C000F6D0B3F802C00CF1030C03EB8C0C64451F
:10A3D000EED3B3F80480B045EDD0B3F80080B8F107
:10A3E000000FE8D013609C888442D4D19B680B6036
:10A3F00012680A4B4A601B890B810020BDE8F0837C
:10A400000CF10803D2E702207047052070470A20AC
:10A41000F4E700BF482600206C26002050260020CC
:10A4200020B119B103680B60002070470520704708
:10A4300099B110B4B2FBF3F403FB1424A4B244B9F1
:10A44000C0E9001484608281C38120465DF8044B1A
:10A45000704709205DF8044B70470E20704700BF1D
:10A4600082B050E8022FC188B2EB324F4FF00003A8
:10A4700017BF92B241EA014142EA014104E0426859
:10A48000B2EB324F08BF012340E80212002AE8D1A4
:10A490008DF807309DF80730002B0CBF11200020ED
:10A4A00002B0704710B483B050E8013F1FFA83FC3C
:10A4B000C489A4448489A44528BFACEB040C048956
:10A4C000A44502BFBFF32F8F002207E0CCEA030CA4
:10A4D00040E801C4002CE7D14FF001028DF80320C1
:10A4E0000193019C9DF803200C6032B1006810FAC2
:10A4F00084F003B05DF8044B704702F0FF03184688
:10A5000003B05DF8044B70470A884B889A4201D02B
:10A510000020704750E8012FC2EA024240E80123C0
:10A52000002BF7D10120704710B483B050E8023FF0
:10A530001FFAA3FCC488A44502BFBFF32F8F0022DB
:10A540000EE0C489A4448489A44528BFACEB040C64
:10A55000C3EA0C4C40E802C4002CE7D14FF00102E2
:10A560008DF803200193019C9DF803200C6032B10B
:10A57000006800EB144003B05DF8044B704702F034
:10A58000FF03184603B05DF8044B70470A884B88F8
:10A590009A4201D00020704750E8022FC2EA2242BE
:10A5A00040E80223002BF7D1012070474B0901F04E
:10A5B0001F024FF0010C0CFA02F100EB830000F0D7
:10A5C00085B800BF4B0910B501F01F040121A1405F
:10A5D00000EB830000F06EF8E04000F0010010BDD9
:10A5E00001F01F02012303FA02F24B0900EB830082
:10A5F000D14300F077B800BF4B0901F01F0150F8BC
:10A600002300C84000F00100704700BF2DE9F04F63
:10A6100001F1FF3A83B04FEA5A130D460446019305
:10A620004FF000094FF0010854F8293004EB890677
:10A630006FEA030B9BFAABFBBBFA8BFBBBF1200F62
:10A6400025D00BEB491B5D454FEA49170CD81EE09E
:10A650003368DB4393FAA3F3B3FA83F3202B07EBBE
:10A66000030B14D05D4512D90BF01F034FEA5B10AA
:10A6700008FA03F104EB80009A4600F01BF820FA78
:10A680000AF0C307E4D4584603B0BDE8F08F019A3E
:10A690004A4509F1010301D09946C5E7AB46F2E707
:10A6A000034653E8000F0A4643E8002C9CF0000FD5
:10A6B000F7D17047034653E8000F40EA010243E830
:10A6C000002C9CF0000FF6D1704700BF034653E802
:10A6D000002F42EA010043E8000C9CF0000FF6D185
:10A6E000704700BF034653E8002F02EA010043E829
:10A6F000000C9CF0000FF6D1704700BF034653E8F2
:10A70000000F00EB010243E8002C9CF0000FF6D193
:10A71000704700BF034653E8002F02EB010043E8F7
:10A72000000C9CF0000FF6D1704700BF034653E8C1
:10A73000002FA2EB010043E8000C9CF0000FF6D1C3
:10A74000704700BF0346012253E8000F40EA0201B0
:10A7500043E8001C9CF0000FF6D17047034601222D
:10A7600053E8001F41EA020043E8000C9CF0000F90
:10A77000F6D170470346002253E8000F00EA0201B9
:10A7800043E8001C9CF0000FF6D17047D0B110B424
:10A79000D0E90112521A0468D2B2531E2160DBB212
:10A7A00052B101680A6803F1FF3C541C0C6013703D
:10A7B0005FFA8CF3FF2BF4D10368002018715DF869
:10A7C000044B70470E20704730B583B00446002517
:10A7D0000DF107008DF80750FEF7C2FBD4E90031F8
:10A7E0001A688A4210D9511E19602168A3680D6841
:10A7F00012F8012C208A5B1BE56800FB02550A79E0
:10A80000DBB29A4238BF0B719DF80700FEF7CEFB12
:10A81000284603B030BD00BF30B5054683B00DF10A
:10A82000070000230C468DF80730FEF799FB2A68D5
:10A830001368591C1160E9682A8A641AB4FBF2F49F
:10A840001C709DF80700FEF7B1FB03B030BD00BFE0
:10A85000826842B110B504464369016800699847AF
:10A860000023A36010BD70470EB400B582B00399F9
:10A8700021B104AB01AA019300F0B6F802B05DF873
:10A8800004EB03B0704700BF2DE9F04F154683B0CD
:10A89000A942DDF830900D9A0F4606469A46C0F060
:10A8A0009E800B464FF00108B3FBF5F39D4208F183
:10A8B0000108F9D9D04538BFD04612F00103019301
:10A8C00002D1B9F1000F67D1B268BAF1010F4FF0B0
:10A8D000010406D90AF1FF3ABAF1010F05FB04F4AD
:10A8E000F8D8B7FBF4F39D4205D805FB04F4B7FB99
:10A8F000F4F39D42F9D9DFF8ECA007E0AC42B4FBD9
:10A90000F5F31AD3B2681C46B7FBF3F31AF803B099
:10A91000BBF10A0F04FB137728D03368511CB160D8
:10A9200003F802B0D6E901329A42E7D33046FFF786
:10A930008FFFB4FBF5F3AC42E4D2019B9BB1B9F1BC
:10A94000000F10D02024C84509F1FF390BD2B3689D
:10A950003268591CB160D454D6E901329A4214D2FB
:10A96000B9F1000FEFD103B0BDE8F08F511C33688F
:10A97000B1604FF00D019954D6E901329A42CCD31F
:10A980003046FFF765FFB268C7E73046FFF760FF64
:10A99000B9F1000FD7D1E6E793071AD42024B268A3
:10A9A000C84502F1010190D23368B1609C54D6E9E8
:10A9B00001329A4209F1FF3903D2B9F1000FEFD108
:10A9C00083E73046FFF744FFB268B9F1000FE7D1E3
:10A9D0007BE7BAF1000F0CBF30242024DFE74FF0F3
:10A9E000010867E7787F0300002900F05C822DE909
:10A9F000F04FDFF870950D7885B0064690460C460E
:10AA00004FF00D0A0FE00A2DB36800F08E80326817
:10AA1000591CB160D554D6E901329A4280F0818048
:10AA20002578002D69D00134002D66D0252DEAD17E
:10AA30000027234614F8012B2D2A6CD0302A6DD024
:10AA40002B2A61D02A2A7FD0A2F1300109294FF0A8
:10AA500000050BD805EB850502EB450513F8012F22
:10AA6000A2F130010929A5F13005F3D92E2A1C469F
:10AA700075D0002301E014F8012F02F0FB016829D2
:10AA8000F9D0252A00F08681583AD1B2202930D851
:10AA9000202A2ED8DFE812F021002D002D002D00F5
:10AAA0002D002D002D002D002D002D002D00FE006D
:10AAB00079002D002D002D002D0079002D002D0096
:10AAC0002D002D002D002D00BD002D002D001A01A0
:10AAD0002D0016012D002D002100D8F800101022A5
:10AAE000081DC8F8000009683046CDE90057FFF797
:10AAF000CBFE01342578002D95D1337B002B40F01F
:10AB0000438105B0BDE8F08F234614F8012B2D2AB0
:10AB100047F0040792D147F001078AE747F00207A0
:10AB200087E73046FFF794FE7AE73268591CB16038
:10AB300002F803A0D6E901239342FFF468AF304640
:10AB4000FFF786FEB36862E7D8F80020111DC8F849
:10AB5000001015685A782E2A03F1010489D1627811
:10AB6000A2F13003092B04F101044FF0000384D853
:10AB700003EB830302EB430314F8012FA2F130012E
:10AB80000929A3F13003F3D977E7D8F80020111D84
:10AB9000C8F80010D2F800B08BEAEB72A2EBEB72AF
:10ABA000092A40F3DB81DFF8C0C301201146632985
:10ABB000ACFB02E200F101004FEAD202F6DC98425F
:10ABC000024638BF1A460292002D00F01E81BBF1EA
:10ABD000000FC0F22E817A0700F12B81B80740F1F7
:10ABE0002A81002B40F02781BBF1000FC0F27D814C
:10ABF0007A0700F18D8107F00302022A00F05D81DF
:10AC0000CDE9005759460A223046FFF73DFE013490
:10AC100070E7D8F800301A1DC8F800201F68B36824
:10AC20003268581C3021B060D154D6E901239342D8
:10AC300080F0FA80591C3268B1607821D154D6E98D
:10AC400001329A4280F0EB800F2F03D93B461B095B
:10AC50000F2BFCD84FF0805506E00F2D4FEA15134F
:10AC60007FF647AFB2681D46B7FBF5F319F803B09E
:10AC7000BBF10A0F05FB137777D03368511CB16025
:10AC800003F802B0D6E901329A42E6D33046FFF724
:10AC9000DFFDE2E7D8F800301A1DC8F800201D7863
:10ACA000B3680A2D00F03A813268591CB160D5545E
:10ACB000D6E901329A42FFF41CAF3046FFF7C8FDD7
:10ACC000013417E7D8F800100A2209E7D8F8003055
:10ACD0001A1DC8F8002017F00107D3F800B064D19E
:10ACE000BBF1000F03D058460CF02AFE0746BD42C8
:10ACF00015D9202201E0BD4211D0B1683368481C4B
:10AD0000B0605A54D6E90130984205F1FF35F2D3CC
:10AD10003046FFF79DFDBD424FF02002EDD19BF87C
:10AD20000050002D3FF4E5AE0A2DB0680FD0336817
:10AD3000421CB2601D54D6E90130984280F0B480C4
:10AD40001BF8015F002D3FF4D4AE0A2DEFD133681C
:10AD5000421CB26003F800A0D6E901309842E6D365
:10AD60003046FFF775FDB068E1E73368511CB1600C
:10AD700003F802A0D6E901329A42FFF47EAF3046D2
:10AD8000FFF766FDB26878E7304605B0BDE8F04FE2
:10AD9000FFF75EBDB3683168581CB060CA54D6E98D
:10ADA00001329A4289D20134A4E69BF80030002B8C
:10ADB00000F0D680B0685F46CBF101020A2B02EBAF
:10ADC000070B5ED0411CB16031680B54D6E90130ED
:10ADD000984248D217F8013F002BEFD15D457FF62E
:10ADE00088AE202702E05D453FF483AEB268336849
:10ADF000511CB1609F54D6E901329A4205F1FF35EA
:10AE0000F1D33046FFF724FDEDE7B80705D5002B59
:10AE10003FF4EAAEF9073FF5E7AE0025E4E6304639
:10AE2000FFF716FDB2680FE73046FFF711FDB36874
:10AE300000E7013DD2E6F9073FF5D6AE002DECD094
:10AE400020220299A942BFF4CFAEB168481CB0607D
:10AE500030684254D6E90101814205F1FF356CD2D8
:10AE6000002DEED1D9E730460292FFF7F1FC17F83A
:10AE7000013F002BB2D0029AB0680A2B02EB070BFD
:10AE8000A0D1411CB160316801F800A0D6E90110E1
:10AE9000884297D33046CDE90232FFF7D9FCDDE98D
:10AEA0000232B0688EE770473046FFF7D1FC1BF8DE
:10AEB000015F002D7FF438AF1BE6002B7FF4A0AEBE
:10AEC0008DB1302202998D427FF69AAEB168481C4E
:10AED000B06030684254D6E90101814205F1FF3586
:10AEE00035D2002DEED100258AE6B1683268481CC3
:10AEF000B060CBF1000B2D205054D6E901219142D6
:10AF0000FFF479AE30460393FFF7A2FC039B72E691
:10AF1000B1683268481CB0602B20EDE73268591CDC
:10AF2000B16002F803A0D6E901239342FFF4BCAE5E
:10AF30003046FFF78DFCB368B6E630460393FFF763
:10AF400087FC039B2022002D7FF47BAF65E7304612
:10AF50000393FFF77DFC039B3022C2E701202EE61E
:10AF60009B463BE7787F0300CDCCCCCC10B582B0BC
:10AF700038B1B9B101600B68114602B0BDE81040AC
:10AF80001847104B1048114A1149C01AC0080E2426
:10AF90000004104B009440F0010001F021FB0E2052
:10AFA00002B010BD074B08480B4A0949C01AC00837
:10AFB0000E240004074B009440F0010001F010FB48
:10AFC000EDE700BF24CD030084CD0300887F03009C
:10AFD000907F030064810300BC7F03002DE9F041F2
:10AFE00082B0002859D01546002A5FD00768002F8C
:10AFF00065D01C466BB34668D6F80480B3FBF8F600
:10B0000008FB163676BB11F0030F34D1AD073BD1E8
:10B01000C568A94211D22E4B2E482F4AC01A1024BF
:10B02000C0082E4BA0402E49009440F0010001F0D2
:10B03000D7FA204602B0BDE8F081056901F1FF3E74
:10B040007444AC42E7D8FC68A44602B0BDE8F041C5
:10B0500060471F4B1F48234AC01AC0081F4B0924D2
:10B060000004E0E71A4B1B481F4AC01AC0081B4BDC
:10B0700009240004D7E7164B16481C4AC01A1024AE
:10B08000C008164BA040CEE7114B1248184AC01A10
:10B090001024C008114BA040C5E70D4B0D48154AC0
:10B0A000C01AC0080D4B0E240004BCE7084B094829
:10B0B000114AC01AC008094B0E240004B3E7044B20
:10B0C00004480E4AC01AC008044B08240004AAE72A
:10B0D00024CD030084CD03008C8003005081030045
:10B0E000907F0300D87F030024800300508003007A
:10B0F00068800300887F03001C800300C47F030076
:10B10000F0B583B000283AD00668002E40D022B3B4
:10B11000446827687C1E0C4228D1C468A14210D222
:10B12000204B2148214AC01A1024C008204BA040BF
:10B130002049009440F0010001F052FA204603B08B
:10B14000F0BD4C1E07FB024E0469A645E8D83469E1
:10B15000A44603B0BDE8F0406047124B1248164ABF
:10B16000C01AC008124B09240004E1E70D4B0E4839
:10B17000124AC01A1024C0080D4BA040D8E7094B52
:10B1800009480F4AC01AC008094B0E240004CFE733
:10B19000044B05480B4AC01AC008054B082400049C
:10B1A000C6E700BF24CD030084CD0300DC8003008C
:10B1B0003C810300907F0300D87F0300B48003002C
:10B1C000887F0300C47F030029DF704728DF7047B2
:10B1D0000846704700207047024B187A003818BFA5
:10B1E00001207047E8270020034B187A0122B0FAAB
:10B1F00080F05A7440097047E827002008B51046CF
:10B200001A460CF0D9F9002008BD00BF08B5142279
:10B21000002104480CF06AFA0348FFF721F90020E6
:10B2200008BD00BFE8270020D827002010B50A4C31
:10B230000A4B43602046FFF785FA08B1002010BD95
:10B2400002F058FC02462274054906481C238C2251
:10B25000FFF7EEF8002010BDE827002078810300FA
:10B260004C270020D827002030B53B4D2B7A87B0E3
:10B27000002B3AD0394B1C6802232B722379002B08
:10B280003ED0012B25D022689368C3B10023CDE9BD
:10B2900002330093049303230193A3680593237956
:10B2A000002B4BD0012B07D102238DF80030E3682F
:10B2B000616904911B030293936868469847284983
:10B2C000284800232B726B6007B0BDE83040FFF7C1
:10B2D0005DB9D4E903031844FFF778FF20B31128C0
:10B2E000D1D101232B7207B030BD1D491D48FFF796
:10B2F0001BF91A4B044618600028BDD16860F2E7BC
:10B30000D4E90523D21AB2F5805F28BF4FF48052EA
:10B310009208E1682069012A38BF012219441844C3
:10B32000FFF752FF0028DAD12B7C002BDBD101463E
:10B33000022007B0BDE8304000F016B801238DF8B8
:10B34000003023690293E1686369CDE9031368461D
:10B3500093689847B3E700BFE82700200028002043
:10B36000FC270020D8270020831E012B42D810B5CF
:10B37000354C237A86B0002B3AD0022B31D10328EA
:10B380003ED0324B00221B68E2601A79002A44D07A
:10B39000012A26D1D3E9042101328A421A6120D13F
:10B3A0000020207219688A68BAB10022CDE9022211
:10B3B000009204929A68019005921A79002A39D075
:10B3C000012A07D102228DF80020DA68586904901A
:10B3D000120302928B68684698471D491D48FFF783
:10B3E000D5F8637C3BB906B0BDE81040FFF73CBF21
:10B3F00006B010BD704706B0BDE8104002F06ABB51
:10B40000E3680133082B01D8E360EAE70F4B002221
:10B410001B68E26022720D20C4E7D3E90512881A86
:10B42000B0F5805F94BF121802F5805291429A6184
:10B43000D7D1B5E701228DF800201A690292DA68A7
:10B440005B69CDE90323C5E7E82700200028002039
:10B45000FC270020D82700202DE9F04184B00746C2
:10B460008846184803A916461D46FFF71BF820B367
:10B4700004461C2200210CF039F90A9B2760656103
:10B48000114F1048A360002503A9C4F81080E6609E
:10B490002571FFF739F8381DFFF754F918B1284620
:10B4A00004B0BDE8F0817B7C002BF9D10190FFF75F
:10B4B000DBFE019804B0BDE8F081042004B0BDE8D3
:10B4C000F08100BFD8270020E82700202DE9F041B7
:10B4D00084B080460D46174803A916461F46FEF75E
:10B4E000E1FF18B304461C2200210CF0FFF82D0BDD
:10B4F000A7600123104F0F48C4F8008003A9E5603E
:10B5000066612371FFF700F8381DFFF71BF918B1CA
:10B51000002004B0BDE8F0817B7C002BF9D10190C4
:10B52000FFF7A2FE019804B0BDE8F081042004B04A
:10B53000BDE8F081D8270020E827002000F0FD03B7
:10B54000012B00D0704730B53D4DA0F10100B0FA9D
:10B5500080F02B7A0022400987B06A742874002B8F
:10B560004ED0384B1C6802232B722379002B52D00B
:10B57000012B07D1D4E903031844FFF727FE58B382
:10B5800011281CD0226893687BB10023CDE90233D7
:10B590000093049303230193A368059323792BB3AA
:10B5A000012B10D093686846984727492748002305
:10B5B0002B726B6007B0BDE83040FEF7E7BF012398
:10B5C0002B7207B030BD02238DF80030E36861694B
:10B5D00004911B030293E5E72B7C002BF1D101467C
:10B5E000022007B0BDE83040FFF7BEBE01238DF852
:10B5F00000302369E16802936369CDE90313D1E761
:10B6000011491248FEF790FF0E4B044618600028BF
:10B61000A9D16860D5E7D4E90523D21AB2F5805FD5
:10B6200028BF4FF480529208E1682069012A38BF90
:10B63000012219441844FFF7C7FD0028A0D1CBE729
:10B64000E827002000280020FC270020D827002021
:10B65000FFF79CB82DE9F041058A0331043D4E19EE
:10B660008046B6FBF5F6FFF7AFF8A0B3F6B24FF49D
:10B670008073013E04468380C580C0F800802BD0D3
:10B680000346002508E06279AE4202F101026271D0
:10B690003860C0F800801FD040461F46FFF794F87E
:10B6A000013503460028EED16779791E17D022466E
:10B6B000013399421268FBD1D2F800805FB126684D
:10B6C000002501E034463668214640460135FFF743
:10B6D000A3F8AF42F6D800242046BDE8F0812068E8
:10B6E0002146FFF799F8F6E701210430FFF712B879
:10B6F0002DE9F041012104460430FFF717F810F05E
:10B70000FF0301D0BDE8F0816779791E16D022468B
:10B71000013399421268FBD1D2F80080002FF1D09A
:10B720002668002501E0344636682146404601354A
:10B73000FFF772F8AF42F6D8BDE8F08120682146E5
:10B74000BDE8F041FFF768B82DE9F8438846C7889F
:10B75000417907FB01F1043902EB030C1E1D614521
:10B76000154638BFCD1AB7420446B6FBF7F207FBC1
:10B77000126002D8013A2468FCD13E1AAE4228BFBA
:10B780002E469DB14FF000090430AD1B324608EB48
:10B79000090120440BF010FFAF42B14424683E463B
:10B7A0004FF0000028BF2E46002DEDD1BDE8F883F4
:10B7B0002DE9F8430446C788407907FB00F00438B8
:10B7C00002EB030C1E1D6045154638BFC51AB74273
:10B7D0008846B6FBF7F107FB116202D801392468ED
:10B7E000FCD1BE1AAE4228BF2E469DB14FF00009D3
:10B7F000111DAD1B3246214408EB09000BF0DCFEA5
:10B80000AF42B14424683E464FF0000228BF2E46A6
:10B81000002DEDD1BDE8F88341DF7047064A074BA4
:10B8200010B5002414701C60BFF35F8F04490548F5
:10B8300000F032F9204610BD0C280020102800200E
:10B84000B08103000428002000B583B000230DF16F
:10B8500007008DF80730FDF783FBF1EE103A23F077
:10B860009F03E1EE103ABFF35F8F0B4B4022C3F80A
:10B8700084219DF80700FDF799FB02F03BF928B9F8
:10B8800020BF40BF20BF03B05DF804FB03B05DF8EC
:10B8900004EBFFF7C1BF00BF00E100E0036882686E
:10B8A00018685B68934234BF01330023C01AB0FAB2
:10B8B00080F04009704700BF70B5044682B0002593
:10B8C0000DF107000E468DF80750FDF749FB236880
:10B8D000A26818685968914238BF4D1CA84212D01E
:10B8E000586859688A420BD800225A60E268531E91
:10B8F000072B19D8DFE803F04540183B1818183318
:10B9000001315960F2E7217C002941D158685D6816
:10B91000AA423AD859602268A16813688B4234BFA2
:10B92000013300231360E1E76368314600FB023016
:10B930000BF042FE2268136851688B4282BFA068F8
:10B9400001300918CB1A91689DF80700994238BF59
:10B950009360FDF72BFB0024204602B070BD6368A6
:10B9600096ED007B03EBC00080ED007BE2E76368AF
:10B97000326843F82020DDE76368328823F810201E
:10B98000D8E7636832781A54D4E701355D60C2E7BE
:10B990009DF80700FDF70AFB0424204602B070BDA5
:10B9A0002DE9F041144682B01AB9204602B0BDE834
:10B9B000F081054600230DF107008DF807300E4693
:10B9C000FDF7CEFA2A681368506883420BD8C31A71
:10B9D0009C420ED905249DF80700FDF7E7FA2046A2
:10B9E00002B0BDE8F081A96801310144CB1A9C4244
:10B9F000F0D8176853686968EA689F4284BFAB68EB
:10BA00000133DB1B9C4202FB07110DD804FB02F241
:10BA100030460BF0D1FDAA682B683C44944288BFA5
:10BA200000241C600024D6E703FB02F8424630469F
:10BA3000E71A0BF0C1FDEA68696806EB080007FB2E
:10BA400002F20BF0B9FD2B6800241F60C3E700BFB2
:10BA500030B5044683B000250DF107008DF807507E
:10BA6000FDF77EFA0C22294620680BF03FFE9DF878
:10BA70000700FDF79BFA03B030BD00BF82680023CA
:10BA8000936082681361826853618268D3608268C0
:10BA9000536082681360704701600B6843604A68B6
:10BAA000934204BF00234360704700BF436843B123
:10BAB000026891680B4443605268934204BF0023BC
:10BAC000436070471049A1F5947205E052F8333095
:10BAD000984238BF61460CD2A1EB020C4FEADC73EE
